{
  "_format": "hh-sol-artifact-1",
  "contractName": "CKPTValStaking",
  "sourceName": "contracts/validatorStaking.sol",
  "abi": [
    {
      "inputs": [
        {
          "internalType": "address",
          "name": "_stakingToken",
          "type": "address"
        },
        {
          "internalType": "uint256",
          "name": "_rewardRate",
          "type": "uint256"
        },
        {
          "internalType": "uint256",
          "name": "_minimumStake",
          "type": "uint256"
        }
      ],
      "stateMutability": "nonpayable",
      "type": "constructor"
    },
    {
      "inputs": [
        {
          "internalType": "address",
          "name": "owner",
          "type": "address"
        }
      ],
      "name": "OwnableInvalidOwner",
      "type": "error"
    },
    {
      "inputs": [
        {
          "internalType": "address",
          "name": "account",
          "type": "address"
        }
      ],
      "name": "OwnableUnauthorizedAccount",
      "type": "error"
    },
    {
      "anonymous": false,
      "inputs": [
        {
          "indexed": true,
          "internalType": "address",
          "name": "previousOwner",
          "type": "address"
        },
        {
          "indexed": true,
          "internalType": "address",
          "name": "newOwner",
          "type": "address"
        }
      ],
      "name": "OwnershipTransferred",
      "type": "event"
    },
    {
      "anonymous": false,
      "inputs": [
        {
          "indexed": true,
          "internalType": "address",
          "name": "validator",
          "type": "address"
        },
        {
          "indexed": false,
          "internalType": "uint256",
          "name": "amount",
          "type": "uint256"
        }
      ],
      "name": "RewardsClaimed",
      "type": "event"
    },
    {
      "anonymous": false,
      "inputs": [
        {
          "indexed": true,
          "internalType": "address",
          "name": "validator",
          "type": "address"
        },
        {
          "indexed": false,
          "internalType": "uint256",
          "name": "amount",
          "type": "uint256"
        }
      ],
      "name": "Staked",
      "type": "event"
    },
    {
      "anonymous": false,
      "inputs": [
        {
          "indexed": true,
          "internalType": "address",
          "name": "validator",
          "type": "address"
        },
        {
          "indexed": false,
          "internalType": "uint256",
          "name": "amount",
          "type": "uint256"
        },
        {
          "indexed": false,
          "internalType": "uint256",
          "name": "unlockTime",
          "type": "uint256"
        }
      ],
      "name": "UnstakeInitiated",
      "type": "event"
    },
    {
      "anonymous": false,
      "inputs": [
        {
          "indexed": true,
          "internalType": "address",
          "name": "validator",
          "type": "address"
        },
        {
          "indexed": false,
          "internalType": "uint256",
          "name": "amount",
          "type": "uint256"
        }
      ],
      "name": "Unstaked",
      "type": "event"
    },
    {
      "anonymous": false,
      "inputs": [
        {
          "indexed": true,
          "internalType": "address",
          "name": "validator",
          "type": "address"
        },
        {
          "indexed": false,
          "internalType": "string",
          "name": "dispatcherURL",
          "type": "string"
        }
      ],
      "name": "ValidatorRegistered",
      "type": "event"
    },
    {
      "anonymous": false,
      "inputs": [
        {
          "indexed": true,
          "internalType": "address",
          "name": "validator",
          "type": "address"
        },
        {
          "indexed": false,
          "internalType": "string",
          "name": "dispatcherURL",
          "type": "string"
        }
      ],
      "name": "ValidatorUpdated",
      "type": "event"
    },
    {
      "inputs": [],
      "name": "claimRewards",
      "outputs": [],
      "stateMutability": "nonpayable",
      "type": "function"
    },
    {
      "inputs": [],
      "name": "completeUnstake",
      "outputs": [],
      "stateMutability": "nonpayable",
      "type": "function"
    },
    {
      "inputs": [
        {
          "internalType": "address",
          "name": "_validator",
          "type": "address"
        }
      ],
      "name": "getStake",
      "outputs": [
        {
          "internalType": "uint256",
          "name": "",
          "type": "uint256"
        }
      ],
      "stateMutability": "view",
      "type": "function"
    },
    {
      "inputs": [
        {
          "internalType": "uint256",
          "name": "_count",
          "type": "uint256"
        }
      ],
      "name": "getTopValidators",
      "outputs": [
        {
          "internalType": "address[]",
          "name": "addresses",
          "type": "address[]"
        },
        {
          "internalType": "uint256[]",
          "name": "stakes",
          "type": "uint256[]"
        },
        {
          "internalType": "string[]",
          "name": "dispatcherURLs",
          "type": "string[]"
        }
      ],
      "stateMutability": "view",
      "type": "function"
    },
    {
      "inputs": [
        {
          "internalType": "address",
          "name": "_validator",
          "type": "address"
        }
      ],
      "name": "getValidator",
      "outputs": [
        {
          "internalType": "uint256",
          "name": "stakedAmount",
          "type": "uint256"
        },
        {
          "internalType": "uint256",
          "name": "pendingRewards",
          "type": "uint256"
        },
        {
          "internalType": "uint256",
          "name": "unstakeTime",
          "type": "uint256"
        },
        {
          "internalType": "string",
          "name": "dispatcherURL",
          "type": "string"
        },
        {
          "internalType": "bool",
          "name": "isActive",
          "type": "bool"
        }
      ],
      "stateMutability": "view",
      "type": "function"
    },
    {
      "inputs": [],
      "name": "getValidatorCount",
      "outputs": [
        {
          "internalType": "uint256",
          "name": "",
          "type": "uint256"
        }
      ],
      "stateMutability": "view",
      "type": "function"
    },
    {
      "inputs": [
        {
          "internalType": "uint256",
          "name": "_amount",
          "type": "uint256"
        }
      ],
      "name": "initiateUnstake",
      "outputs": [],
      "stateMutability": "nonpayable",
      "type": "function"
    },
    {
      "inputs": [],
      "name": "lockPeriod",
      "outputs": [
        {
          "internalType": "uint256",
          "name": "",
          "type": "uint256"
        }
      ],
      "stateMutability": "view",
      "type": "function"
    },
    {
      "inputs": [],
      "name": "minimumStake",
      "outputs": [
        {
          "internalType": "uint256",
          "name": "",
          "type": "uint256"
        }
      ],
      "stateMutability": "view",
      "type": "function"
    },
    {
      "inputs": [],
      "name": "owner",
      "outputs": [
        {
          "internalType": "address",
          "name": "",
          "type": "address"
        }
      ],
      "stateMutability": "view",
      "type": "function"
    },
    {
      "inputs": [
        {
          "internalType": "string",
          "name": "_dispatcherURL",
          "type": "string"
        }
      ],
      "name": "registerValidator",
      "outputs": [],
      "stateMutability": "nonpayable",
      "type": "function"
    },
    {
      "inputs": [],
      "name": "renounceOwnership",
      "outputs": [],
      "stateMutability": "nonpayable",
      "type": "function"
    },
    {
      "inputs": [],
      "name": "rewardRate",
      "outputs": [
        {
          "internalType": "uint256",
          "name": "",
          "type": "uint256"
        }
      ],
      "stateMutability": "view",
      "type": "function"
    },
    {
      "inputs": [
        {
          "internalType": "uint256",
          "name": "_lockPeriod",
          "type": "uint256"
        }
      ],
      "name": "setLockPeriod",
      "outputs": [],
      "stateMutability": "nonpayable",
      "type": "function"
    },
    {
      "inputs": [
        {
          "internalType": "uint256",
          "name": "_minimumStake",
          "type": "uint256"
        }
      ],
      "name": "setMinimumStake",
      "outputs": [],
      "stateMutability": "nonpayable",
      "type": "function"
    },
    {
      "inputs": [
        {
          "internalType": "uint256",
          "name": "_rewardRate",
          "type": "uint256"
        }
      ],
      "name": "setRewardRate",
      "outputs": [],
      "stateMutability": "nonpayable",
      "type": "function"
    },
    {
      "inputs": [
        {
          "internalType": "uint256",
          "name": "_amount",
          "type": "uint256"
        }
      ],
      "name": "stake",
      "outputs": [],
      "stateMutability": "nonpayable",
      "type": "function"
    },
    {
      "inputs": [],
      "name": "stakingToken",
      "outputs": [
        {
          "internalType": "contract IERC20",
          "name": "",
          "type": "address"
        }
      ],
      "stateMutability": "view",
      "type": "function"
    },
    {
      "inputs": [
        {
          "internalType": "address",
          "name": "newOwner",
          "type": "address"
        }
      ],
      "name": "transferOwnership",
      "outputs": [],
      "stateMutability": "nonpayable",
      "type": "function"
    },
    {
      "inputs": [
        {
          "internalType": "string",
          "name": "_dispatcherURL",
          "type": "string"
        }
      ],
      "name": "updateDispatcherURL",
      "outputs": [],
      "stateMutability": "nonpayable",
      "type": "function"
    },
    {
      "inputs": [
        {
          "internalType": "uint256",
          "name": "_count",
          "type": "uint256"
        }
      ],
      "name": "updateValidatorCursor",
      "outputs": [],
      "stateMutability": "nonpayable",
      "type": "function"
    },
    {
      "inputs": [
        {
          "internalType": "uint256",
          "name": "",
          "type": "uint256"
        }
      ],
      "name": "validatorAddresses",
      "outputs": [
        {
          "internalType": "address",
          "name": "",
          "type": "address"
        }
      ],
      "stateMutability": "view",
      "type": "function"
    },
    {
      "inputs": [
        {
          "internalType": "address",
          "name": "",
          "type": "address"
        }
      ],
      "name": "validators",
      "outputs": [
        {
          "internalType": "uint256",
          "name": "stakedAmount",
          "type": "uint256"
        },
        {
          "internalType": "uint256",
          "name": "lastRewardTime",
          "type": "uint256"
        },
        {
          "internalType": "uint256",
          "name": "pendingRewards",
          "type": "uint256"
        },
        {
          "internalType": "uint256",
          "name": "unstakeTime",
          "type": "uint256"
        },
        {
          "internalType": "string",
          "name": "dispatcherURL",
          "type": "string"
        },
        {
          "internalType": "bool",
          "name": "isActive",
          "type": "bool"
        }
      ],
      "stateMutability": "view",
      "type": "function"
    }
  ],
  "bytecode": "0x608060405262093a8060035560006005553480156200001d57600080fd5b50604051620034b3380380620034b383398181016040528101906200004391906200028c565b33600073ffffffffffffffffffffffffffffffffffffffff168173ffffffffffffffffffffffffffffffffffffffff1603620000b95760006040517f1e4fbdf7000000000000000000000000000000000000000000000000000000008152600401620000b09190620002f9565b60405180910390fd5b620000ca816200012360201b60201c565b5082600160006101000a81548173ffffffffffffffffffffffffffffffffffffffff021916908373ffffffffffffffffffffffffffffffffffffffff160217905550816002819055508060048190555050505062000316565b60008060009054906101000a900473ffffffffffffffffffffffffffffffffffffffff169050816000806101000a81548173ffffffffffffffffffffffffffffffffffffffff021916908373ffffffffffffffffffffffffffffffffffffffff1602179055508173ffffffffffffffffffffffffffffffffffffffff168173ffffffffffffffffffffffffffffffffffffffff167f8be0079c531659141344cd1fd0a4f28419497f9722a3daafe3b4186f6b6457e060405160405180910390a35050565b600080fd5b600073ffffffffffffffffffffffffffffffffffffffff82169050919050565b60006200021982620001ec565b9050919050565b6200022b816200020c565b81146200023757600080fd5b50565b6000815190506200024b8162000220565b92915050565b6000819050919050565b620002668162000251565b81146200027257600080fd5b50565b60008151905062000286816200025b565b92915050565b600080600060608486031215620002a857620002a7620001e7565b5b6000620002b8868287016200023a565b9350506020620002cb8682870162000275565b9250506040620002de8682870162000275565b9150509250925092565b620002f3816200020c565b82525050565b6000602082019050620003106000830184620002e8565b92915050565b61318d80620003266000396000f3fe608060405234801561001057600080fd5b506004361061014d5760003560e01c80637b0a47ee116100c3578063a694fc3a1161007c578063a694fc3a14610358578063ae5ac92114610374578063b5c6f4ff14610390578063ec5ffac2146103ac578063f2fde38b146103ca578063fa52c7d8146103e65761014d565b80637b0a47ee146102825780638da5cb5b146102a057806393a5b1b6146102be57806399745318146102f05780639e447fc614610320578063a416aa061461033c5761014d565b806363803b231161011557806363803b23146101e65780637071688a146101f0578063715018a61461020e57806372f702f314610218578063779972da146102365780637a766460146102525761014d565b80631904bb2e14610152578063233e990314610186578063372500ab146101a25780633fd8b02f146101ac57806351057fad146101ca575b600080fd5b61016c60048036038101906101679190611ef5565b61041b565b60405161017d959493929190611fe6565b60405180910390f35b6101a0600480360381019061019b919061206c565b6105ab565b005b6101aa6105bd565b005b6101b461078a565b6040516101c19190612099565b60405180910390f35b6101e460048036038101906101df919061206c565b610790565b005b6101ee61081a565b005b6101f8610aa5565b6040516102059190612099565b60405180910390f35b610216610ab2565b005b610220610ac6565b60405161022d9190612113565b60405180910390f35b610250600480360381019061024b919061206c565b610aec565b005b61026c60048036038101906102679190611ef5565b610afe565b6040516102799190612099565b60405180910390f35b61028a610b4a565b6040516102979190612099565b60405180910390f35b6102a8610b50565b6040516102b5919061213d565b60405180910390f35b6102d860048036038101906102d3919061206c565b610b79565b6040516102e7939291906123e0565b60405180910390f35b61030a6004803603810190610305919061206c565b610fbf565b604051610317919061213d565b60405180910390f35b61033a6004803603810190610335919061206c565b610ffe565b005b61035660048036038101906103519190612491565b611010565b005b610372600480360381019061036d919061206c565b611263565b005b61038e6004803603810190610389919061206c565b611655565b005b6103aa60048036038101906103a59190612491565b6119ce565b005b6103b4611af9565b6040516103c19190612099565b60405180910390f35b6103e460048036038101906103df9190611ef5565b611aff565b005b61040060048036038101906103fb9190611ef5565b611b85565b604051610412969594939291906124de565b60405180910390f35b60008060006060600080600660008873ffffffffffffffffffffffffffffffffffffffff1673ffffffffffffffffffffffffffffffffffffffff16815260200190815260200160002090506000816002015490508160050160009054906101000a900460ff168015610491575060008260000154115b156104e95760008260010154426104a89190612575565b9050670de0b6b3a76400008360000154600254836104c691906125a9565b6104d091906125a9565b6104da919061261a565b826104e5919061264b565b9150505b8160000154818360030154846004018560050160009054906101000a900460ff16818054610516906126ae565b80601f0160208091040260200160405190810160405280929190818152602001828054610542906126ae565b801561058f5780601f106105645761010080835404028352916020019161058f565b820191906000526020600020905b81548152906001019060200180831161057257829003601f168201915b5050505050915096509650965096509650505091939590929450565b6105b3611c56565b8060048190555050565b6105c633611cdd565b6000600660003373ffffffffffffffffffffffffffffffffffffffff1673ffffffffffffffffffffffffffffffffffffffff16815260200190815260200160002060020154905060008111610650576040517f08c379a00000000000000000000000000000000000000000000000000000000081526004016106479061272b565b60405180910390fd5b6000600660003373ffffffffffffffffffffffffffffffffffffffff1673ffffffffffffffffffffffffffffffffffffffff16815260200190815260200160002060020181905550600160009054906101000a900473ffffffffffffffffffffffffffffffffffffffff1673ffffffffffffffffffffffffffffffffffffffff1663a9059cbb33836040518363ffffffff1660e01b81526004016106f592919061274b565b6020604051808303816000875af1158015610714573d6000803e3d6000fd5b505050506040513d601f19601f8201168201806040525081019061073891906127a0565b503373ffffffffffffffffffffffffffffffffffffffff167ffc30cddea38e2bf4d6ea7d3f9ed3b6ad7f176419f4963bd81318067a4aee73fe8260405161077f9190612099565b60405180910390a250565b60035481565b60006007805490509050600081116107dd576040517f08c379a00000000000000000000000000000000000000000000000000000000081526004016107d490612819565b60405180910390fd5b6000600554905060008284106107f357826107f5565b835b9050828183610804919061264b565b61080e9190612839565b60058190555050505050565b6000600660003373ffffffffffffffffffffffffffffffffffffffff1673ffffffffffffffffffffffffffffffffffffffff168152602001908152602001600020600301541161089f576040517f08c379a0000000000000000000000000000000000000000000000000000000008152600401610896906128b6565b60405180910390fd5b600660003373ffffffffffffffffffffffffffffffffffffffff1673ffffffffffffffffffffffffffffffffffffffff16815260200190815260200160002060030154421015610924576040517f08c379a000000000000000000000000000000000000000000000000000000000815260040161091b90612922565b60405180910390fd5b6000600660003373ffffffffffffffffffffffffffffffffffffffff1673ffffffffffffffffffffffffffffffffffffffff1681526020019081526020016000206000015490506000600660003373ffffffffffffffffffffffffffffffffffffffff1673ffffffffffffffffffffffffffffffffffffffff16815260200190815260200160002060030181905550600160009054906101000a900473ffffffffffffffffffffffffffffffffffffffff1673ffffffffffffffffffffffffffffffffffffffff1663a9059cbb33836040518363ffffffff1660e01b8152600401610a1092919061274b565b6020604051808303816000875af1158015610a2f573d6000803e3d6000fd5b505050506040513d601f19601f82011682018060405250810190610a5391906127a0565b503373ffffffffffffffffffffffffffffffffffffffff167f0f5bb82176feb1b5e747e28471aa92156a04d9f3ab9f45f28e2d704232b93f7582604051610a9a9190612099565b60405180910390a250565b6000600780549050905090565b610aba611c56565b610ac46000611dc1565b565b600160009054906101000a900473ffffffffffffffffffffffffffffffffffffffff1681565b610af4611c56565b8060038190555050565b6000600660008373ffffffffffffffffffffffffffffffffffffffff1673ffffffffffffffffffffffffffffffffffffffff168152602001908152602001600020600001549050919050565b60025481565b60008060009054906101000a900473ffffffffffffffffffffffffffffffffffffffff16905090565b60608060606000600780549050905060008103610c7f57600067ffffffffffffffff811115610bab57610baa612942565b5b604051908082528060200260200182016040528015610bd95781602001602082028036833780820191505090505b50600067ffffffffffffffff811115610bf557610bf4612942565b5b604051908082528060200260200182016040528015610c235781602001602082028036833780820191505090505b50600067ffffffffffffffff811115610c3f57610c3e612942565b5b604051908082528060200260200182016040528015610c7257816020015b6060815260200190600190039081610c5d5790505b5093509350935050610fb8565b6000818610610c8e5781610c90565b855b90508067ffffffffffffffff811115610cac57610cab612942565b5b604051908082528060200260200182016040528015610cda5781602001602082028036833780820191505090505b5094508067ffffffffffffffff811115610cf757610cf6612942565b5b604051908082528060200260200182016040528015610d255781602001602082028036833780820191505090505b5093508067ffffffffffffffff811115610d4257610d41612942565b5b604051908082528060200260200182016040528015610d7557816020015b6060815260200190600190039081610d605790505b509250600080600554905060005b8481108015610d9157508383105b15610fa0576000858284610da5919061264b565b610daf9190612839565b9050600060078281548110610dc757610dc6612971565b5b9060005260206000200160009054906101000a900473ffffffffffffffffffffffffffffffffffffffff1690506000600660008373ffffffffffffffffffffffffffffffffffffffff1673ffffffffffffffffffffffffffffffffffffffff16815260200190815260200160002090508060050160009054906101000a900460ff168015610e59575060008160000154115b15610f8a57818b8781518110610e7257610e71612971565b5b602002602001019073ffffffffffffffffffffffffffffffffffffffff16908173ffffffffffffffffffffffffffffffffffffffff168152505080600001548a8781518110610ec457610ec3612971565b5b602002602001018181525050806004018054610edf906126ae565b80601f0160208091040260200160405190810160405280929190818152602001828054610f0b906126ae565b8015610f585780601f10610f2d57610100808354040283529160200191610f58565b820191906000526020600020905b815481529060010190602001808311610f3b57829003601f168201915b5050505050898781518110610f7057610f6f612971565b5b60200260200101819052508580610f86906129a0565b9650505b5050508080610f98906129a0565b915050610d83565b5082821015610fb3578187528186528185525b505050505b9193909250565b60078181548110610fcf57600080fd5b906000526020600020016000915054906101000a900473ffffffffffffffffffffffffffffffffffffffff1681565b611006611c56565b8060028190555050565b6000600660003373ffffffffffffffffffffffffffffffffffffffff1673ffffffffffffffffffffffffffffffffffffffff1681526020019081526020016000206000015414611095576040517f08c379a000000000000000000000000000000000000000000000000000000000815260040161108c90612a34565b60405180910390fd5b6040518060c0016040528060008152602001428152602001600081526020016000815260200183838080601f016020809104026020016040519081016040528093929190818152602001838380828437600081840152601f19601f82011690508083019250505050505050815260200160001515815250600660003373ffffffffffffffffffffffffffffffffffffffff1673ffffffffffffffffffffffffffffffffffffffff1681526020019081526020016000206000820151816000015560208201518160010155604082015181600201556060820151816003015560808201518160040190816111889190612bf6565b5060a08201518160050160006101000a81548160ff0219169083151502179055509050506007339080600181540180825580915050600190039060005260206000200160009091909190916101000a81548173ffffffffffffffffffffffffffffffffffffffff021916908373ffffffffffffffffffffffffffffffffffffffff1602179055503373ffffffffffffffffffffffffffffffffffffffff167f3ac90d069dcde8ad9ac7ff6eeb0dc4ce2fead5d96404718826477aa58fca3de48383604051611257929190612d04565b60405180910390a25050565b60045481146112a7576040517f08c379a000000000000000000000000000000000000000000000000000000000815260040161129e90612d74565b60405180910390fd5b6000600660003373ffffffffffffffffffffffffffffffffffffffff1673ffffffffffffffffffffffffffffffffffffffff168152602001908152602001600020600001541461132c576040517f08c379a000000000000000000000000000000000000000000000000000000000815260040161132390612de0565b60405180910390fd5b6000600660003373ffffffffffffffffffffffffffffffffffffffff1673ffffffffffffffffffffffffffffffffffffffff16815260200190815260200160002060030154146113b1576040517f08c379a00000000000000000000000000000000000000000000000000000000081526004016113a890612e4c565b60405180910390fd5b6113ba33611cdd565b600160009054906101000a900473ffffffffffffffffffffffffffffffffffffffff1673ffffffffffffffffffffffffffffffffffffffff166323b872dd3330846040518463ffffffff1660e01b815260040161141993929190612e6c565b6020604051808303816000875af1158015611438573d6000803e3d6000fd5b505050506040513d601f19601f8201168201806040525081019061145c91906127a0565b5080600660003373ffffffffffffffffffffffffffffffffffffffff1673ffffffffffffffffffffffffffffffffffffffff168152602001908152602001600020600001546114ab919061264b565b600660003373ffffffffffffffffffffffffffffffffffffffff1673ffffffffffffffffffffffffffffffffffffffff16815260200190815260200160002060000181905550600660003373ffffffffffffffffffffffffffffffffffffffff1673ffffffffffffffffffffffffffffffffffffffff16815260200190815260200160002060050160009054906101000a900460ff16611604576001600660003373ffffffffffffffffffffffffffffffffffffffff1673ffffffffffffffffffffffffffffffffffffffff16815260200190815260200160002060050160006101000a81548160ff0219169083151502179055506007339080600181540180825580915050600190039060005260206000200160009091909190916101000a81548173ffffffffffffffffffffffffffffffffffffffff021916908373ffffffffffffffffffffffffffffffffffffffff1602179055505b3373ffffffffffffffffffffffffffffffffffffffff167f9e71bc8eea02a63969f509818f2dafb9254532904319f9dbda79b67bd34a5f3d8260405161164a9190612099565b60405180910390a250565b60008111611698576040517f08c379a000000000000000000000000000000000000000000000000000000000815260040161168f90612eef565b60405180910390fd5b80600660003373ffffffffffffffffffffffffffffffffffffffff1673ffffffffffffffffffffffffffffffffffffffff16815260200190815260200160002060000154101561171d576040517f08c379a000000000000000000000000000000000000000000000000000000000815260040161171490612f5b565b60405180910390fd5b6000600660003373ffffffffffffffffffffffffffffffffffffffff1673ffffffffffffffffffffffffffffffffffffffff16815260200190815260200160002060030154146117a2576040517f08c379a000000000000000000000000000000000000000000000000000000000815260040161179990612fc7565b60405180910390fd5b6117ab33611cdd565b600354426117b9919061264b565b600660003373ffffffffffffffffffffffffffffffffffffffff1673ffffffffffffffffffffffffffffffffffffffff1681526020019081526020016000206003018190555080600660003373ffffffffffffffffffffffffffffffffffffffff1673ffffffffffffffffffffffffffffffffffffffff1681526020019081526020016000206000015461184d9190612575565b600660003373ffffffffffffffffffffffffffffffffffffffff1673ffffffffffffffffffffffffffffffffffffffff168152602001908152602001600020600001819055506000600660003373ffffffffffffffffffffffffffffffffffffffff1673ffffffffffffffffffffffffffffffffffffffff1681526020019081526020016000206000015403611939576000600660003373ffffffffffffffffffffffffffffffffffffffff1673ffffffffffffffffffffffffffffffffffffffff16815260200190815260200160002060050160006101000a81548160ff0219169083151502179055505b3373ffffffffffffffffffffffffffffffffffffffff167f9cee5eacd317086e5050733a5dad16ef5aaec185de792371a9625bfee2a3213b82600660003373ffffffffffffffffffffffffffffffffffffffff1673ffffffffffffffffffffffffffffffffffffffff168152602001908152602001600020600301546040516119c3929190612fe7565b60405180910390a250565b6000600660003373ffffffffffffffffffffffffffffffffffffffff1673ffffffffffffffffffffffffffffffffffffffff1681526020019081526020016000206000015411611a53576040517f08c379a0000000000000000000000000000000000000000000000000000000008152600401611a4a9061305c565b60405180910390fd5b8181600660003373ffffffffffffffffffffffffffffffffffffffff1673ffffffffffffffffffffffffffffffffffffffff1681526020019081526020016000206004019182611aa4929190613087565b503373ffffffffffffffffffffffffffffffffffffffff167fb4de2aecc21bac90f87c545b1a9886152c2c25b898c6ef9083c2d61f277dbb318383604051611aed929190612d04565b60405180910390a25050565b60045481565b611b07611c56565b600073ffffffffffffffffffffffffffffffffffffffff168173ffffffffffffffffffffffffffffffffffffffff1603611b795760006040517f1e4fbdf7000000000000000000000000000000000000000000000000000000008152600401611b70919061213d565b60405180910390fd5b611b8281611dc1565b50565b6006602052806000526040600020600091509050806000015490806001015490806002015490806003015490806004018054611bc0906126ae565b80601f0160208091040260200160405190810160405280929190818152602001828054611bec906126ae565b8015611c395780601f10611c0e57610100808354040283529160200191611c39565b820191906000526020600020905b815481529060010190602001808311611c1c57829003601f168201915b5050505050908060050160009054906101000a900460ff16905086565b611c5e611e85565b73ffffffffffffffffffffffffffffffffffffffff16611c7c610b50565b73ffffffffffffffffffffffffffffffffffffffff1614611cdb57611c9f611e85565b6040517f118cdaa7000000000000000000000000000000000000000000000000000000008152600401611cd2919061213d565b60405180910390fd5b565b6000600660008373ffffffffffffffffffffffffffffffffffffffff1673ffffffffffffffffffffffffffffffffffffffff16815260200190815260200160002090508060050160009054906101000a900460ff168015611d42575060008160000154115b15611dbd576000816001015442611d599190612575565b90506000811115611dbb576000670de0b6b3a7640000836000015460025484611d8291906125a9565b611d8c91906125a9565b611d96919061261a565b9050808360020154611da8919061264b565b8360020181905550428360010181905550505b505b5050565b60008060009054906101000a900473ffffffffffffffffffffffffffffffffffffffff169050816000806101000a81548173ffffffffffffffffffffffffffffffffffffffff021916908373ffffffffffffffffffffffffffffffffffffffff1602179055508173ffffffffffffffffffffffffffffffffffffffff168173ffffffffffffffffffffffffffffffffffffffff167f8be0079c531659141344cd1fd0a4f28419497f9722a3daafe3b4186f6b6457e060405160405180910390a35050565b600033905090565b600080fd5b600080fd5b600073ffffffffffffffffffffffffffffffffffffffff82169050919050565b6000611ec282611e97565b9050919050565b611ed281611eb7565b8114611edd57600080fd5b50565b600081359050611eef81611ec9565b92915050565b600060208284031215611f0b57611f0a611e8d565b5b6000611f1984828501611ee0565b91505092915050565b6000819050919050565b611f3581611f22565b82525050565b600081519050919050565b600082825260208201905092915050565b60005b83811015611f75578082015181840152602081019050611f5a565b60008484015250505050565b6000601f19601f8301169050919050565b6000611f9d82611f3b565b611fa78185611f46565b9350611fb7818560208601611f57565b611fc081611f81565b840191505092915050565b60008115159050919050565b611fe081611fcb565b82525050565b600060a082019050611ffb6000830188611f2c565b6120086020830187611f2c565b6120156040830186611f2c565b81810360608301526120278185611f92565b90506120366080830184611fd7565b9695505050505050565b61204981611f22565b811461205457600080fd5b50565b60008135905061206681612040565b92915050565b60006020828403121561208257612081611e8d565b5b600061209084828501612057565b91505092915050565b60006020820190506120ae6000830184611f2c565b92915050565b6000819050919050565b60006120d96120d46120cf84611e97565b6120b4565b611e97565b9050919050565b60006120eb826120be565b9050919050565b60006120fd826120e0565b9050919050565b61210d816120f2565b82525050565b60006020820190506121286000830184612104565b92915050565b61213781611eb7565b82525050565b6000602082019050612152600083018461212e565b92915050565b600081519050919050565b600082825260208201905092915050565b6000819050602082019050919050565b61218d81611eb7565b82525050565b600061219f8383612184565b60208301905092915050565b6000602082019050919050565b60006121c382612158565b6121cd8185612163565b93506121d883612174565b8060005b838110156122095781516121f08882612193565b97506121fb836121ab565b9250506001810190506121dc565b5085935050505092915050565b600081519050919050565b600082825260208201905092915050565b6000819050602082019050919050565b61224b81611f22565b82525050565b600061225d8383612242565b60208301905092915050565b6000602082019050919050565b600061228182612216565b61228b8185612221565b935061229683612232565b8060005b838110156122c75781516122ae8882612251565b97506122b983612269565b92505060018101905061229a565b5085935050505092915050565b600081519050919050565b600082825260208201905092915050565b6000819050602082019050919050565b600082825260208201905092915050565b600061231c82611f3b565b6123268185612300565b9350612336818560208601611f57565b61233f81611f81565b840191505092915050565b60006123568383612311565b905092915050565b6000602082019050919050565b6000612376826122d4565b61238081856122df565b935083602082028501612392856122f0565b8060005b858110156123ce57848403895281516123af858261234a565b94506123ba8361235e565b925060208a01995050600181019050612396565b50829750879550505050505092915050565b600060608201905081810360008301526123fa81866121b8565b9050818103602083015261240e8185612276565b90508181036040830152612422818461236b565b9050949350505050565b600080fd5b600080fd5b600080fd5b60008083601f8401126124515761245061242c565b5b8235905067ffffffffffffffff81111561246e5761246d612431565b5b60208301915083600182028301111561248a57612489612436565b5b9250929050565b600080602083850312156124a8576124a7611e8d565b5b600083013567ffffffffffffffff8111156124c6576124c5611e92565b5b6124d28582860161243b565b92509250509250929050565b600060c0820190506124f36000830189611f2c565b6125006020830188611f2c565b61250d6040830187611f2c565b61251a6060830186611f2c565b818103608083015261252c8185611f92565b905061253b60a0830184611fd7565b979650505050505050565b7f4e487b7100000000000000000000000000000000000000000000000000000000600052601160045260246000fd5b600061258082611f22565b915061258b83611f22565b92508282039050818111156125a3576125a2612546565b5b92915050565b60006125b482611f22565b91506125bf83611f22565b92508282026125cd81611f22565b915082820484148315176125e4576125e3612546565b5b5092915050565b7f4e487b7100000000000000000000000000000000000000000000000000000000600052601260045260246000fd5b600061262582611f22565b915061263083611f22565b9250826126405761263f6125eb565b5b828204905092915050565b600061265682611f22565b915061266183611f22565b925082820190508082111561267957612678612546565b5b92915050565b7f4e487b7100000000000000000000000000000000000000000000000000000000600052602260045260246000fd5b600060028204905060018216806126c657607f821691505b6020821081036126d9576126d861267f565b5b50919050565b7f4e6f207265776172647320746f20636c61696d00000000000000000000000000600082015250565b6000612715601383611f46565b9150612720826126df565b602082019050919050565b6000602082019050818103600083015261274481612708565b9050919050565b6000604082019050612760600083018561212e565b61276d6020830184611f2c565b9392505050565b61277d81611fcb565b811461278857600080fd5b50565b60008151905061279a81612774565b92915050565b6000602082840312156127b6576127b5611e8d565b5b60006127c48482850161278b565b91505092915050565b7f4e6f2076616c696461746f727320617661696c61626c65000000000000000000600082015250565b6000612803601783611f46565b915061280e826127cd565b602082019050919050565b60006020820190508181036000830152612832816127f6565b9050919050565b600061284482611f22565b915061284f83611f22565b92508261285f5761285e6125eb565b5b828206905092915050565b7f4e6f20756e7374616b696e6720696e2070726f67726573730000000000000000600082015250565b60006128a0601883611f46565b91506128ab8261286a565b602082019050919050565b600060208201905081810360008301526128cf81612893565b9050919050565b7f5374696c6c20696e206c6f636b20706572696f64000000000000000000000000600082015250565b600061290c601483611f46565b9150612917826128d6565b602082019050919050565b6000602082019050818103600083015261293b816128ff565b9050919050565b7f4e487b7100000000000000000000000000000000000000000000000000000000600052604160045260246000fd5b7f4e487b7100000000000000000000000000000000000000000000000000000000600052603260045260246000fd5b60006129ab82611f22565b91507fffffffffffffffffffffffffffffffffffffffffffffffffffffffffffffffff82036129dd576129dc612546565b5b600182019050919050565b7f416c726561647920726567697374657265640000000000000000000000000000600082015250565b6000612a1e601283611f46565b9150612a29826129e8565b602082019050919050565b60006020820190508181036000830152612a4d81612a11565b9050919050565b60008190508160005260206000209050919050565b60006020601f8301049050919050565b600082821b905092915050565b600060088302612ab67fffffffffffffffffffffffffffffffffffffffffffffffffffffffffffffffff82612a79565b612ac08683612a79565b95508019841693508086168417925050509392505050565b6000612af3612aee612ae984611f22565b6120b4565b611f22565b9050919050565b6000819050919050565b612b0d83612ad8565b612b21612b1982612afa565b848454612a86565b825550505050565b600090565b612b36612b29565b612b41818484612b04565b505050565b5b81811015612b6557612b5a600082612b2e565b600181019050612b47565b5050565b601f821115612baa57612b7b81612a54565b612b8484612a69565b81016020851015612b93578190505b612ba7612b9f85612a69565b830182612b46565b50505b505050565b600082821c905092915050565b6000612bcd60001984600802612baf565b1980831691505092915050565b6000612be68383612bbc565b9150826002028217905092915050565b612bff82611f3b565b67ffffffffffffffff811115612c1857612c17612942565b5b612c2282546126ae565b612c2d828285612b69565b600060209050601f831160018114612c605760008415612c4e578287015190505b612c588582612bda565b865550612cc0565b601f198416612c6e86612a54565b60005b82811015612c9657848901518255600182019150602085019450602081019050612c71565b86831015612cb35784890151612caf601f891682612bbc565b8355505b6001600288020188555050505b505050505050565b82818337600083830152505050565b6000612ce38385611f46565b9350612cf0838584612cc8565b612cf983611f81565b840190509392505050565b60006020820190508181036000830152612d1f818486612cd7565b90509392505050565b7f4d757374207374616b65206578616374206d696e696d756d20616d6f756e7400600082015250565b6000612d5e601f83611f46565b9150612d6982612d28565b602082019050919050565b60006020820190508181036000830152612d8d81612d51565b9050919050565b7f416c7265616479207374616b6564000000000000000000000000000000000000600082015250565b6000612dca600e83611f46565b9150612dd582612d94565b602082019050919050565b60006020820190508181036000830152612df981612dbd565b9050919050565b7f556e7374616b696e6720696e2070726f67726573730000000000000000000000600082015250565b6000612e36601583611f46565b9150612e4182612e00565b602082019050919050565b60006020820190508181036000830152612e6581612e29565b9050919050565b6000606082019050612e81600083018661212e565b612e8e602083018561212e565b612e9b6040830184611f2c565b949350505050565b7f43616e6e6f7420756e7374616b65203000000000000000000000000000000000600082015250565b6000612ed9601083611f46565b9150612ee482612ea3565b602082019050919050565b60006020820190508181036000830152612f0881612ecc565b9050919050565b7f4e6f7420656e6f756768207374616b6564000000000000000000000000000000600082015250565b6000612f45601183611f46565b9150612f5082612f0f565b602082019050919050565b60006020820190508181036000830152612f7481612f38565b9050919050565b7f556e7374616b696e6720616c726561647920696e2070726f6772657373000000600082015250565b6000612fb1601d83611f46565b9150612fbc82612f7b565b602082019050919050565b60006020820190508181036000830152612fe081612fa4565b9050919050565b6000604082019050612ffc6000830185611f2c565b6130096020830184611f2c565b9392505050565b7f4e6f7420612076616c696461746f720000000000000000000000000000000000600082015250565b6000613046600f83611f46565b915061305182613010565b602082019050919050565b6000602082019050818103600083015261307581613039565b9050919050565b600082905092915050565b613091838361307c565b67ffffffffffffffff8111156130aa576130a9612942565b5b6130b482546126ae565b6130bf828285612b69565b6000601f8311600181146130ee57600084156130dc578287013590505b6130e68582612bda565b86555061314e565b601f1984166130fc86612a54565b60005b82811015613124578489013582556001820191506020850194506020810190506130ff565b86831015613141578489013561313d601f891682612bbc565b8355505b6001600288020188555050505b5050505050505056fea264697066735822122048ee9104711dd09d6b1871f49fc93499deb6deab0220971ea7e025117c29e99664736f6c63430008140033",
  "linkReferences": {},
  "deployedLinkReferences": {}
}